{
  "_format": "hh-sol-artifact-1",
  "contractName": "ParkingReservation",
  "sourceName": "contracts/ParkingReservation.sol",
  "abi": [
    {
      "inputs": [
        {
          "internalType": "uint8",
          "name": "_totalPrimarySlots",
          "type": "uint8"
        },
        {
          "internalType": "uint8",
          "name": "_totalSecondarySlots",
          "type": "uint8"
        },
        {
          "internalType": "uint256",
          "name": "_reservationFeePerMin",
          "type": "uint256"
        }
      ],
      "stateMutability": "nonpayable",
      "type": "constructor"
    },
    {
      "inputs": [
        {
          "internalType": "uint256",
          "name": "startTime",
          "type": "uint256"
        },
        {
          "internalType": "uint256",
          "name": "endTime",
          "type": "uint256"
        }
      ],
      "name": "getCalculatedFee",
      "outputs": [
        {
          "internalType": "uint256",
          "name": "",
          "type": "uint256"
        }
      ],
      "stateMutability": "view",
      "type": "function"
    },
    {
      "inputs": [],
      "name": "getOccupiedSlots",
      "outputs": [
        {
          "internalType": "string[]",
          "name": "slotIdentifiers",
          "type": "string[]"
        }
      ],
      "stateMutability": "view",
      "type": "function"
    },
    {
      "inputs": [
        {
          "internalType": "address",
          "name": "user",
          "type": "address"
        }
      ],
      "name": "getReservedSlotsByAddress",
      "outputs": [
        {
          "internalType": "string[]",
          "name": "primarySlots",
          "type": "string[]"
        },
        {
          "internalType": "uint8[]",
          "name": "secondarySlots",
          "type": "uint8[]"
        }
      ],
      "stateMutability": "view",
      "type": "function"
    },
    {
      "inputs": [
        {
          "internalType": "string",
          "name": "primary",
          "type": "string"
        },
        {
          "internalType": "uint8",
          "name": "secondary",
          "type": "uint8"
        }
      ],
      "name": "removePark",
      "outputs": [],
      "stateMutability": "nonpayable",
      "type": "function"
    },
    {
      "inputs": [],
      "name": "reservationFeePerMin",
      "outputs": [
        {
          "internalType": "uint256",
          "name": "",
          "type": "uint256"
        }
      ],
      "stateMutability": "view",
      "type": "function"
    },
    {
      "inputs": [
        {
          "internalType": "address",
          "name": "",
          "type": "address"
        },
        {
          "internalType": "string",
          "name": "",
          "type": "string"
        },
        {
          "internalType": "uint8",
          "name": "",
          "type": "uint8"
        }
      ],
      "name": "reservedByAddress",
      "outputs": [
        {
          "internalType": "bool",
          "name": "isOccupied",
          "type": "bool"
        },
        {
          "internalType": "address",
          "name": "reserver",
          "type": "address"
        },
        {
          "internalType": "uint256",
          "name": "startTime",
          "type": "uint256"
        }
      ],
      "stateMutability": "view",
      "type": "function"
    },
    {
      "inputs": [
        {
          "internalType": "string",
          "name": "primary",
          "type": "string"
        },
        {
          "internalType": "uint8",
          "name": "secondary",
          "type": "uint8"
        }
      ],
      "name": "setSlot",
      "outputs": [],
      "stateMutability": "nonpayable",
      "type": "function"
    },
    {
      "inputs": [
        {
          "internalType": "string",
          "name": "",
          "type": "string"
        },
        {
          "internalType": "uint8",
          "name": "",
          "type": "uint8"
        }
      ],
      "name": "slots",
      "outputs": [
        {
          "internalType": "bool",
          "name": "isOccupied",
          "type": "bool"
        },
        {
          "internalType": "address",
          "name": "reserver",
          "type": "address"
        },
        {
          "internalType": "uint256",
          "name": "startTime",
          "type": "uint256"
        }
      ],
      "stateMutability": "view",
      "type": "function"
    },
    {
      "inputs": [],
      "name": "totalPrimarySlots",
      "outputs": [
        {
          "internalType": "uint8",
          "name": "",
          "type": "uint8"
        }
      ],
      "stateMutability": "view",
      "type": "function"
    },
    {
      "inputs": [],
      "name": "totalSecondarySlots",
      "outputs": [
        {
          "internalType": "uint8",
          "name": "",
          "type": "uint8"
        }
      ],
      "stateMutability": "view",
      "type": "function"
    },
    {
      "stateMutability": "payable",
      "type": "receive"
    }
  ],
  "bytecode": "0x608060405234801561001057600080fd5b5060405161251c38038061251c8339818101604052810190610032919061012b565b336000806101000a81548173ffffffffffffffffffffffffffffffffffffffff021916908373ffffffffffffffffffffffffffffffffffffffff16021790555082600260006101000a81548160ff021916908360ff16021790555081600260016101000a81548160ff021916908360ff1602179055508060018190555050505061017e565b600080fd5b600060ff82169050919050565b6100d2816100bc565b81146100dd57600080fd5b50565b6000815190506100ef816100c9565b92915050565b6000819050919050565b610108816100f5565b811461011357600080fd5b50565b600081519050610125816100ff565b92915050565b600080600060608486031215610144576101436100b7565b5b6000610152868287016100e0565b9350506020610163868287016100e0565b925050604061017486828701610116565b9150509250925092565b61238f8061018d6000396000f3fe6080604052600436106100955760003560e01c806395750870116100595780639575087014610189578063a0d97751146101c8578063ae179fe714610205578063cfb322af1461022e578063d36692811461026d5761009c565b8063147c0df7146100a1578063360dd453146100cc5780636b2e1cc41461010a57806385ec3dce146101335780639224f0fc1461015e5761009c565b3661009c57005b600080fd5b3480156100ad57600080fd5b506100b6610298565b6040516100c39190611685565b60405180910390f35b3480156100d857600080fd5b506100f360048036038101906100ee9190611719565b6104d6565b604051610101929190611811565b60405180910390f35b34801561011657600080fd5b50610131600480360381019061012c91906119a9565b6107d8565b005b34801561013f57600080fd5b50610148610b47565b6040516101559190611a1e565b60405180910390f35b34801561016a57600080fd5b50610173610b4d565b6040516101809190611a48565b60405180910390f35b34801561019557600080fd5b506101b060048036038101906101ab9190611a63565b610b60565b6040516101bf93929190611afc565b60405180910390f35b3480156101d457600080fd5b506101ef60048036038101906101ea9190611b5f565b610be7565b6040516101fc9190611a1e565b60405180910390f35b34801561021157600080fd5b5061022c600480360381019061022791906119a9565b610c9a565b005b34801561023a57600080fd5b50610255600480360381019061025091906119a9565b610ffc565b60405161026493929190611afc565b60405180910390f35b34801561027957600080fd5b50610282611076565b60405161028f9190611a48565b60405180910390f35b60606000805b600260009054906101000a900460ff1660ff168160ff1610156103675760006102c682611089565b90506000600190505b600260019054906101000a900460ff1660ff168160ff1611610358576003826040516102fb9190611bdb565b908152602001604051809103902060008260ff1660ff16815260200190815260200160002060000160009054906101000a900460ff161561034557838061034190611c21565b9450505b808061035090611c69565b9150506102cf565b5050808060010191505061029e565b508067ffffffffffffffff81111561038257610381611852565b5b6040519080825280602002602001820160405280156103b557816020015b60608152602001906001900390816103a05790505b5091506000805b600260009054906101000a900460ff1660ff168160ff1610156104d05760006103e482611089565b90506000600190505b600260019054906101000a900460ff1660ff168160ff16116104c1576003826040516104199190611bdb565b908152602001604051809103902060008260ff1660ff16815260200190815260200160002060000160009054906101000a900460ff16156104ae57816104618260ff1661122a565b604051602001610472929190611c92565b60405160208183030381529060405286858151811061049457610493611cb6565b5b602002602001018190525083806104aa90611c21565b9450505b80806104b990611c69565b9150506103ed565b505080806001019150506103bc565b50505090565b6060806000805b600260009054906101000a900460ff1660ff168160ff1610156105e357600061050582611089565b90506000600190505b600260019054906101000a900460ff1660ff168160ff16116105d457600460008873ffffffffffffffffffffffffffffffffffffffff1673ffffffffffffffffffffffffffffffffffffffff168152602001908152602001600020826040516105779190611bdb565b908152602001604051809103902060008260ff1660ff16815260200190815260200160002060000160009054906101000a900460ff16156105c15783806105bd90611c21565b9450505b80806105cc90611c69565b91505061050e565b505080806001019150506104dd565b508067ffffffffffffffff8111156105fe576105fd611852565b5b60405190808252806020026020018201604052801561063157816020015b606081526020019060019003908161061c5790505b5092508067ffffffffffffffff81111561064e5761064d611852565b5b60405190808252806020026020018201604052801561067c5781602001602082028036833780820191505090505b5091506000805b600260009054906101000a900460ff1660ff168160ff1610156107d05760006106ab82611089565b90506000600190505b600260019054906101000a900460ff1660ff168160ff16116107c157600460008973ffffffffffffffffffffffffffffffffffffffff1673ffffffffffffffffffffffffffffffffffffffff1681526020019081526020016000208260405161071d9190611bdb565b908152602001604051809103902060008260ff1660ff16815260200190815260200160002060000160009054906101000a900460ff16156107ae578187858151811061076c5761076b611cb6565b5b60200260200101819052508086858151811061078b5761078a611cb6565b5b602002602001019060ff16908160ff168152505083806107aa90611c21565b9450505b80806107b990611c69565b9150506106b4565b50508080600101915050610683565b505050915091565b818160008160ff161180156108025750600260019054906101000a900460ff1660ff168160ff1611155b610841576040517f08c379a000000000000000000000000000000000000000000000000000000000815260040161083890611d42565b60405180910390fd5b61084a8261138d565b610889576040517f08c379a000000000000000000000000000000000000000000000000000000000815260040161088090611dae565b60405180910390fd5b6003846040516108999190611bdb565b908152602001604051809103902060008460ff1660ff16815260200190815260200160002060000160009054906101000a900460ff1661090e576040517f08c379a000000000000000000000000000000000000000000000000000000000815260040161090590611e1a565b60405180910390fd5b3373ffffffffffffffffffffffffffffffffffffffff166003856040516109359190611bdb565b908152602001604051809103902060008560ff1660ff16815260200190815260200160002060000160019054906101000a900473ffffffffffffffffffffffffffffffffffffffff1673ffffffffffffffffffffffffffffffffffffffff16146109d4576040517f08c379a00000000000000000000000000000000000000000000000000000000081526004016109cb90611e86565b60405180910390fd5b60006003856040516109e69190611bdb565b908152602001604051809103902060008560ff1660ff16815260200190815260200160002060000160006101000a81548160ff0219169083151502179055506040518060600160405280600015158152602001600073ffffffffffffffffffffffffffffffffffffffff1681526020016000815250600460003373ffffffffffffffffffffffffffffffffffffffff1673ffffffffffffffffffffffffffffffffffffffff16815260200190815260200160002085604051610aa89190611bdb565b908152602001604051809103902060008560ff1660ff16815260200190815260200160002060008201518160000160006101000a81548160ff02191690831515021790555060208201518160000160016101000a81548173ffffffffffffffffffffffffffffffffffffffff021916908373ffffffffffffffffffffffffffffffffffffffff1602179055506040820151816001015590505050505050565b60015481565b600260009054906101000a900460ff1681565b60046020528260005260406000208280516020810182018051848252602083016020850120818352809550505050505060205280600052604060002060009250925050508060000160009054906101000a900460ff16908060000160019054906101000a900473ffffffffffffffffffffffffffffffffffffffff16908060010154905083565b6000818310610c2b576040517f08c379a0000000000000000000000000000000000000000000000000000000008152600401610c2290611f18565b60405180910390fd5b60008383610c399190611f38565b9050600080603c83610c4b9190611f9b565b11610c57576000610c5a565b60015b60ff16603c83610c6a9190611fcc565b610c749190611ffd565b9050603c60015482610c869190612031565b610c909190611fcc565b9250505092915050565b818160008160ff16118015610cc45750600260019054906101000a900460ff1660ff168160ff1611155b610d03576040517f08c379a0000000000000000000000000000000000000000000000000000000008152600401610cfa90611d42565b60405180910390fd5b610d0c8261138d565b610d4b576040517f08c379a0000000000000000000000000000000000000000000000000000000008152600401610d4290611dae565b60405180910390fd5b600384604051610d5b9190611bdb565b908152602001604051809103902060008460ff1660ff16815260200190815260200160002060000160009054906101000a900460ff1615610dd1576040517f08c379a0000000000000000000000000000000000000000000000000000000008152600401610dc8906120bf565b60405180910390fd5b60405180606001604052806001151581526020013373ffffffffffffffffffffffffffffffffffffffff16815260200142815250600385604051610e159190611bdb565b908152602001604051809103902060008560ff1660ff16815260200190815260200160002060008201518160000160006101000a81548160ff02191690831515021790555060208201518160000160016101000a81548173ffffffffffffffffffffffffffffffffffffffff021916908373ffffffffffffffffffffffffffffffffffffffff16021790555060408201518160010155905050600384604051610ebe9190611bdb565b908152602001604051809103902060008460ff1660ff168152602001908152602001600020600460003373ffffffffffffffffffffffffffffffffffffffff1673ffffffffffffffffffffffffffffffffffffffff16815260200190815260200160002085604051610f309190611bdb565b908152602001604051809103902060008560ff1660ff1681526020019081526020016000206000820160009054906101000a900460ff168160000160006101000a81548160ff0219169083151502179055506000820160019054906101000a900473ffffffffffffffffffffffffffffffffffffffff168160000160016101000a81548173ffffffffffffffffffffffffffffffffffffffff021916908373ffffffffffffffffffffffffffffffffffffffff1602179055506001820154816001015590505050505050565b600382805160208101820180518482526020830160208501208183528095505050505050602052806000526040600020600091509150508060000160009054906101000a900460ff16908060000160019054906101000a900473ffffffffffffffffffffffffffffffffffffffff16908060010154905083565b600260019054906101000a900460ff1681565b606060058260ff16106110d1576040517f08c379a00000000000000000000000000000000000000000000000000000000081526004016110c89061212b565b60405180910390fd5b60008260ff16146111ec5760018260ff16146111b05760028260ff16146111745760038260ff1614611138576040518060400160405280600181526020017f450000000000000000000000000000000000000000000000000000000000000081525061116f565b6040518060400160405280600181526020017f44000000000000000000000000000000000000000000000000000000000000008152505b6111ab565b6040518060400160405280600181526020017f43000000000000000000000000000000000000000000000000000000000000008152505b6111e7565b6040518060400160405280600181526020017f42000000000000000000000000000000000000000000000000000000000000008152505b611223565b6040518060400160405280600181526020017f41000000000000000000000000000000000000000000000000000000000000008152505b9050919050565b606060008203611271576040518060400160405280600181526020017f30000000000000000000000000000000000000000000000000000000000000008152509050611388565b600082905060005b600082146112a357808061128c90611c21565b915050600a8261129c9190611fcc565b9150611279565b60008167ffffffffffffffff8111156112bf576112be611852565b5b6040519080825280601f01601f1916602001820160405280156112f15781602001600182028036833780820191505090505b50905060008290505b6000861461138057600a8661130f9190611f9b565b603061131b9190611ffd565b60f81b82826113299061214b565b9250828151811061133d5761133c611cb6565b5b60200101907effffffffffffffffffffffffffffffffffffffffffffffffffffffffffffff1916908160001a905350600a866113799190611fcc565b95506112fa565b819450505050505b919050565b600060405160200161139e906121c0565b60405160208183030381529060405280519060200120826040516020016113c59190611bdb565b60405160208183030381529060405280519060200120148061143057506040516020016113f190612221565b60405160208183030381529060405280519060200120826040516020016114189190611bdb565b60405160208183030381529060405280519060200120145b80611484575060405160200161144590612282565b604051602081830303815290604052805190602001208260405160200161146c9190611bdb565b60405160208183030381529060405280519060200120145b806114d85750604051602001611499906122e3565b60405160208183030381529060405280519060200120826040516020016114c09190611bdb565b60405160208183030381529060405280519060200120145b8061152c57506040516020016114ed90612344565b60405160208183030381529060405280519060200120826040516020016115149190611bdb565b60405160208183030381529060405280519060200120145b9050919050565b600081519050919050565b600082825260208201905092915050565b6000819050602082019050919050565b600081519050919050565b600082825260208201905092915050565b60005b8381101561159957808201518184015260208101905061157e565b60008484015250505050565b6000601f19601f8301169050919050565b60006115c18261155f565b6115cb818561156a565b93506115db81856020860161157b565b6115e4816115a5565b840191505092915050565b60006115fb83836115b6565b905092915050565b6000602082019050919050565b600061161b82611533565b611625818561153e565b9350836020820285016116378561154f565b8060005b85811015611673578484038952815161165485826115ef565b945061165f83611603565b925060208a0199505060018101905061163b565b50829750879550505050505092915050565b6000602082019050818103600083015261169f8184611610565b905092915050565b6000604051905090565b600080fd5b600080fd5b600073ffffffffffffffffffffffffffffffffffffffff82169050919050565b60006116e6826116bb565b9050919050565b6116f6816116db565b811461170157600080fd5b50565b600081359050611713816116ed565b92915050565b60006020828403121561172f5761172e6116b1565b5b600061173d84828501611704565b91505092915050565b600081519050919050565b600082825260208201905092915050565b6000819050602082019050919050565b600060ff82169050919050565b61178881611772565b82525050565b600061179a838361177f565b60208301905092915050565b6000602082019050919050565b60006117be82611746565b6117c88185611751565b93506117d383611762565b8060005b838110156118045781516117eb888261178e565b97506117f6836117a6565b9250506001810190506117d7565b5085935050505092915050565b6000604082019050818103600083015261182b8185611610565b9050818103602083015261183f81846117b3565b90509392505050565b600080fd5b600080fd5b7f4e487b7100000000000000000000000000000000000000000000000000000000600052604160045260246000fd5b61188a826115a5565b810181811067ffffffffffffffff821117156118a9576118a8611852565b5b80604052505050565b60006118bc6116a7565b90506118c88282611881565b919050565b600067ffffffffffffffff8211156118e8576118e7611852565b5b6118f1826115a5565b9050602081019050919050565b82818337600083830152505050565b600061192061191b846118cd565b6118b2565b90508281526020810184848401111561193c5761193b61184d565b5b6119478482856118fe565b509392505050565b600082601f83011261196457611963611848565b5b813561197484826020860161190d565b91505092915050565b61198681611772565b811461199157600080fd5b50565b6000813590506119a38161197d565b92915050565b600080604083850312156119c0576119bf6116b1565b5b600083013567ffffffffffffffff8111156119de576119dd6116b6565b5b6119ea8582860161194f565b92505060206119fb85828601611994565b9150509250929050565b6000819050919050565b611a1881611a05565b82525050565b6000602082019050611a336000830184611a0f565b92915050565b611a4281611772565b82525050565b6000602082019050611a5d6000830184611a39565b92915050565b600080600060608486031215611a7c57611a7b6116b1565b5b6000611a8a86828701611704565b935050602084013567ffffffffffffffff811115611aab57611aaa6116b6565b5b611ab78682870161194f565b9250506040611ac886828701611994565b9150509250925092565b60008115159050919050565b611ae781611ad2565b82525050565b611af6816116db565b82525050565b6000606082019050611b116000830186611ade565b611b1e6020830185611aed565b611b2b6040830184611a0f565b949350505050565b611b3c81611a05565b8114611b4757600080fd5b50565b600081359050611b5981611b33565b92915050565b60008060408385031215611b7657611b756116b1565b5b6000611b8485828601611b4a565b9250506020611b9585828601611b4a565b9150509250929050565b600081905092915050565b6000611bb58261155f565b611bbf8185611b9f565b9350611bcf81856020860161157b565b80840191505092915050565b6000611be78284611baa565b915081905092915050565b7f4e487b7100000000000000000000000000000000000000000000000000000000600052601160045260246000fd5b6000611c2c82611a05565b91507fffffffffffffffffffffffffffffffffffffffffffffffffffffffffffffffff8203611c5e57611c5d611bf2565b5b600182019050919050565b6000611c7482611772565b915060ff8203611c8757611c86611bf2565b5b600182019050919050565b6000611c9e8285611baa565b9150611caa8284611baa565b91508190509392505050565b7f4e487b7100000000000000000000000000000000000000000000000000000000600052603260045260246000fd5b600082825260208201905092915050565b7f496e76616c6964207365636f6e64617279207061726b696e672073706f742e00600082015250565b6000611d2c601f83611ce5565b9150611d3782611cf6565b602082019050919050565b60006020820190508181036000830152611d5b81611d1f565b9050919050565b7f496e76616c6964207072696d617279207061726b696e672073706f742e000000600082015250565b6000611d98601d83611ce5565b9150611da382611d62565b602082019050919050565b60006020820190508181036000830152611dc781611d8b565b9050919050565b7f536c6f74206973206e6f74206f636375706965642e0000000000000000000000600082015250565b6000611e04601583611ce5565b9150611e0f82611dce565b602082019050919050565b60006020820190508181036000830152611e3381611df7565b9050919050565b7f4e6f7420617574686f72697a656420746f2072656d6f76652e00000000000000600082015250565b6000611e70601983611ce5565b9150611e7b82611e3a565b602082019050919050565b60006020820190508181036000830152611e9f81611e63565b9050919050565b7f53746172742074696d652073686f756c64206265206c657373207468616e206560008201527f6e642074696d6500000000000000000000000000000000000000000000000000602082015250565b6000611f02602783611ce5565b9150611f0d82611ea6565b604082019050919050565b60006020820190508181036000830152611f3181611ef5565b9050919050565b6000611f4382611a05565b9150611f4e83611a05565b9250828203905081811115611f6657611f65611bf2565b5b92915050565b7f4e487b7100000000000000000000000000000000000000000000000000000000600052601260045260246000fd5b6000611fa682611a05565b9150611fb183611a05565b925082611fc157611fc0611f6c565b5b828206905092915050565b6000611fd782611a05565b9150611fe283611a05565b925082611ff257611ff1611f6c565b5b828204905092915050565b600061200882611a05565b915061201383611a05565b925082820190508082111561202b5761202a611bf2565b5b92915050565b600061203c82611a05565b915061204783611a05565b925082820261205581611a05565b9150828204841483151761206c5761206b611bf2565b5b5092915050565b7f536c6f7420697320616c7265616479206f636375706965642e00000000000000600082015250565b60006120a9601983611ce5565b91506120b482612073565b602082019050919050565b600060208201905081810360008301526120d88161209c565b9050919050565b7f496e76616c6964207072696d61727920696e6465782e00000000000000000000600082015250565b6000612115601683611ce5565b9150612120826120df565b602082019050919050565b6000602082019050818103600083015261214481612108565b9050919050565b600061215682611a05565b91506000820361216957612168611bf2565b5b600182039050919050565b7f4100000000000000000000000000000000000000000000000000000000000000600082015250565b60006121aa600183611b9f565b91506121b582612174565b600182019050919050565b60006121cb8261219d565b9150819050919050565b7f4200000000000000000000000000000000000000000000000000000000000000600082015250565b600061220b600183611b9f565b9150612216826121d5565b600182019050919050565b600061222c826121fe565b9150819050919050565b7f4300000000000000000000000000000000000000000000000000000000000000600082015250565b600061226c600183611b9f565b915061227782612236565b600182019050919050565b600061228d8261225f565b9150819050919050565b7f4400000000000000000000000000000000000000000000000000000000000000600082015250565b60006122cd600183611b9f565b91506122d882612297565b600182019050919050565b60006122ee826122c0565b9150819050919050565b7f4500000000000000000000000000000000000000000000000000000000000000600082015250565b600061232e600183611b9f565b9150612339826122f8565b600182019050919050565b600061234f82612321565b915081905091905056fea2646970667358221220871535aaf293337f55f556b76e850babf7ddc207af1a8473bf3c50cabfb98dab64736f6c634300081b0033",
  "linkReferences": {},
  "deployedLinkReferences": {}
}